{"abi":[{"type":"function","name":"deleteFile","inputs":[{"name":"_fileId","type":"uint256","internalType":"uint256"}],"outputs":[],"stateMutability":"nonpayable"},{"type":"function","name":"fileExists","inputs":[{"name":"_fileId","type":"uint256","internalType":"uint256"}],"outputs":[{"name":"","type":"bool","internalType":"bool"}],"stateMutability":"view"},{"type":"function","name":"files","inputs":[{"name":"","type":"uint256","internalType":"uint256"}],"outputs":[{"name":"ipfsHash","type":"string","internalType":"string"},{"name":"fileName","type":"string","internalType":"string"},{"name":"fileSize","type":"uint256","internalType":"uint256"},{"name":"uploader","type":"address","internalType":"address"},{"name":"timestamp","type":"uint256","internalType":"uint256"},{"name":"exists","type":"bool","internalType":"bool"}],"stateMutability":"view"},{"type":"function","name":"getFile","inputs":[{"name":"_fileId","type":"uint256","internalType":"uint256"}],"outputs":[{"name":"","type":"tuple","internalType":"struct FileStorage.FileInfo","components":[{"name":"ipfsHash","type":"string","internalType":"string"},{"name":"fileName","type":"string","internalType":"string"},{"name":"fileSize","type":"uint256","internalType":"uint256"},{"name":"uploader","type":"address","internalType":"address"},{"name":"timestamp","type":"uint256","internalType":"uint256"},{"name":"exists","type":"bool","internalType":"bool"}]}],"stateMutability":"view"},{"type":"function","name":"getFiles","inputs":[{"name":"_fileIds","type":"uint256[]","internalType":"uint256[]"}],"outputs":[{"name":"","type":"tuple[]","internalType":"struct FileStorage.FileInfo[]","components":[{"name":"ipfsHash","type":"string","internalType":"string"},{"name":"fileName","type":"string","internalType":"string"},{"name":"fileSize","type":"uint256","internalType":"uint256"},{"name":"uploader","type":"address","internalType":"address"},{"name":"timestamp","type":"uint256","internalType":"uint256"},{"name":"exists","type":"bool","internalType":"bool"}]}],"stateMutability":"view"},{"type":"function","name":"getStats","inputs":[],"outputs":[{"name":"","type":"uint256","internalType":"uint256"},{"name":"","type":"uint256","internalType":"uint256"}],"stateMutability":"view"},{"type":"function","name":"getUserFileCount","inputs":[{"name":"_user","type":"address","internalType":"address"}],"outputs":[{"name":"","type":"uint256","internalType":"uint256"}],"stateMutability":"view"},{"type":"function","name":"getUserFiles","inputs":[{"name":"_user","type":"address","internalType":"address"}],"outputs":[{"name":"","type":"uint256[]","internalType":"uint256[]"}],"stateMutability":"view"},{"type":"function","name":"ipfsHashExists","inputs":[{"name":"","type":"string","internalType":"string"}],"outputs":[{"name":"","type":"bool","internalType":"bool"}],"stateMutability":"view"},{"type":"function","name":"nextFileId","inputs":[],"outputs":[{"name":"","type":"uint256","internalType":"uint256"}],"stateMutability":"view"},{"type":"function","name":"totalFiles","inputs":[],"outputs":[{"name":"","type":"uint256","internalType":"uint256"}],"stateMutability":"view"},{"type":"function","name":"uploadFile","inputs":[{"name":"_ipfsHash","type":"string","internalType":"string"},{"name":"_fileName","type":"string","internalType":"string"},{"name":"_fileSize","type":"uint256","internalType":"uint256"}],"outputs":[],"stateMutability":"nonpayable"},{"type":"function","name":"userFiles","inputs":[{"name":"","type":"address","internalType":"address"},{"name":"","type":"uint256","internalType":"uint256"}],"outputs":[{"name":"","type":"uint256","internalType":"uint256"}],"stateMutability":"view"},{"type":"event","name":"FileDeleted","inputs":[{"name":"owner","type":"address","indexed":true,"internalType":"address"},{"name":"fileId","type":"uint256","indexed":true,"internalType":"uint256"},{"name":"ipfsHash","type":"string","indexed":false,"internalType":"string"}],"anonymous":false},{"type":"event","name":"FileUploaded","inputs":[{"name":"uploader","type":"address","indexed":true,"internalType":"address"},{"name":"ipfsHash","type":"string","indexed":false,"internalType":"string"},{"name":"fileName","type":"string","indexed":false,"internalType":"string"},{"name":"fileSize","type":"uint256","indexed":false,"internalType":"uint256"},{"name":"timestamp","type":"uint256","indexed":false,"internalType":"uint256"},{"name":"fileId","type":"uint256","indexed":false,"internalType":"uint256"}],"anonymous":false}],"bytecode":{"object":"0x6080604052348015600e575f5ffd5b5061223b8061001c5f395ff3fe608060405234801561000f575f5ffd5b50600436106100cd575f3560e01c806389b83a9b1161008a578063c59d484711610064578063c59d484714610249578063c5b4200614610268578063e4e10b3614610284578063f4c714b4146102b4576100cd565b806389b83a9b146101dd57806392cf0557146101fb57806394205c9d14610219576100cd565b80631a2110e6146100d15780631fc37922146101015780632419c0db146101315780632bfda3131461014d5780632fe61ff61461017d578063718f38a6146101ad575b5f5ffd5b6100eb60048036038101906100e69190611301565b6102e9565b6040516100f89190611362565b60405180910390f35b61011b600480360381019061011691906113d5565b61031e565b60405161012891906114c0565b60405180910390f35b61014b6004803603810190610146919061150a565b6103b1565b005b61016760048036038101906101629190611592565b610707565b60405161017491906116c8565b60405180910390f35b61019760048036038101906101929190611592565b610934565b6040516101a49190611362565b60405180910390f35b6101c760048036038101906101c291906116e8565b61095c565b6040516101d49190611735565b60405180910390f35b6101e5610987565b6040516101f29190611735565b60405180910390f35b61020361098d565b6040516102109190611735565b60405180910390f35b610233600480360381019061022e9190611812565b610993565b60405161024091906119a1565b60405180910390f35b610251610c47565b60405161025f9291906119c1565b60405180910390f35b610282600480360381019061027d9190611592565b610c57565b005b61029e600480360381019061029991906113d5565b610fb3565b6040516102ab9190611735565b60405180910390f35b6102ce60048036038101906102c99190611592565b610ffc565b6040516102e096959493929190611a3f565b60405180910390f35b6002818051602081018201805184825260208301602085012081835280955050505050505f915054906101000a900460ff1681565b606060015f8373ffffffffffffffffffffffffffffffffffffffff1673ffffffffffffffffffffffffffffffffffffffff1681526020019081526020015f208054806020026020016040519081016040528092919081815260200182805480156103a557602002820191905f5260205f20905b815481526020019060010190808311610391575b50505050509050919050565b5f8351116103f4576040517f08c379a00000000000000000000000000000000000000000000000000000000081526004016103eb90611af6565b60405180910390fd5b5f825111610437576040517f08c379a000000000000000000000000000000000000000000000000000000000815260040161042e90611b5e565b60405180910390fd5b5f8111610479576040517f08c379a000000000000000000000000000000000000000000000000000000000815260040161047090611bc6565b60405180910390fd5b6002836040516104899190611c1e565b90815260200160405180910390205f9054906101000a900460ff16156104e4576040517f08c379a00000000000000000000000000000000000000000000000000000000081526004016104db90611ca4565b60405180910390fd5b5f60045490506040518060c001604052808581526020018481526020018381526020013373ffffffffffffffffffffffffffffffffffffffff168152602001428152602001600115158152505f5f8381526020019081526020015f205f820151815f0190816105539190611ebf565b5060208201518160010190816105699190611ebf565b50604082015181600201556060820151816003015f6101000a81548173ffffffffffffffffffffffffffffffffffffffff021916908373ffffffffffffffffffffffffffffffffffffffff1602179055506080820151816004015560a0820151816005015f6101000a81548160ff02191690831515021790555090505060015f3373ffffffffffffffffffffffffffffffffffffffff1673ffffffffffffffffffffffffffffffffffffffff1681526020019081526020015f2081908060018154018082558091505060019003905f5260205f20015f909190919091505560016002856040516106599190611c1e565b90815260200160405180910390205f6101000a81548160ff02191690831515021790555060045f81548092919061068f90611fbb565b919050555060035f8154809291906106a690611fbb565b91905055503373ffffffffffffffffffffffffffffffffffffffff167f28e4d46b2ca42e0b16cc5ccd4e4153c78bedd55aac73b50d0690195619128ba985858542866040516106f9959493929190612002565b60405180910390a250505050565b61070f61116a565b815f5f8281526020019081526020015f206005015f9054906101000a900460ff1661076f576040517f08c379a0000000000000000000000000000000000000000000000000000000008152600401610766906120ab565b60405180910390fd5b5f5f8481526020019081526020015f206040518060c00160405290815f8201805461079990611cef565b80601f01602080910402602001604051908101604052809291908181526020018280546107c590611cef565b80156108105780601f106107e757610100808354040283529160200191610810565b820191905f5260205f20905b8154815290600101906020018083116107f357829003601f168201915b5050505050815260200160018201805461082990611cef565b80601f016020809104026020016040519081016040528092919081815260200182805461085590611cef565b80156108a05780601f10610877576101008083540402835291602001916108a0565b820191905f5260205f20905b81548152906001019060200180831161088357829003601f168201915b5050505050815260200160028201548152602001600382015f9054906101000a900473ffffffffffffffffffffffffffffffffffffffff1673ffffffffffffffffffffffffffffffffffffffff1673ffffffffffffffffffffffffffffffffffffffff16815260200160048201548152602001600582015f9054906101000a900460ff161515151581525050915050919050565b5f5f5f8381526020019081526020015f206005015f9054906101000a900460ff169050919050565b6001602052815f5260405f208181548110610975575f80fd5b905f5260205f20015f91509150505481565b60045481565b60035481565b60605f825167ffffffffffffffff8111156109b1576109b06111dd565b5b6040519080825280602002602001820160405280156109ea57816020015b6109d761116a565b8152602001906001900390816109cf5790505b5090505f5f90505b8351811015610c3d575f5f858381518110610a1057610a0f6120c9565b5b602002602001015181526020019081526020015f206005015f9054906101000a900460ff1615610c30575f5f858381518110610a4f57610a4e6120c9565b5b602002602001015181526020019081526020015f206040518060c00160405290815f82018054610a7e90611cef565b80601f0160208091040260200160405190810160405280929190818152602001828054610aaa90611cef565b8015610af55780601f10610acc57610100808354040283529160200191610af5565b820191905f5260205f20905b815481529060010190602001808311610ad857829003601f168201915b50505050508152602001600182018054610b0e90611cef565b80601f0160208091040260200160405190810160405280929190818152602001828054610b3a90611cef565b8015610b855780601f10610b5c57610100808354040283529160200191610b85565b820191905f5260205f20905b815481529060010190602001808311610b6857829003601f168201915b5050505050815260200160028201548152602001600382015f9054906101000a900473ffffffffffffffffffffffffffffffffffffffff1673ffffffffffffffffffffffffffffffffffffffff1673ffffffffffffffffffffffffffffffffffffffff16815260200160048201548152602001600582015f9054906101000a900460ff161515151581525050828281518110610c2457610c236120c9565b5b60200260200101819052505b80806001019150506109f2565b5080915050919050565b5f5f600354600454915091509091565b805f5f8281526020019081526020015f206005015f9054906101000a900460ff16610cb7576040517f08c379a0000000000000000000000000000000000000000000000000000000008152600401610cae906120ab565b60405180910390fd5b3373ffffffffffffffffffffffffffffffffffffffff165f5f8381526020019081526020015f206003015f9054906101000a900473ffffffffffffffffffffffffffffffffffffffff1673ffffffffffffffffffffffffffffffffffffffff1614610d57576040517f08c379a0000000000000000000000000000000000000000000000000000000008152600401610d4e90612140565b60405180910390fd5b5f5f5f8481526020019081526020015f205f018054610d7590611cef565b80601f0160208091040260200160405190810160405280929190818152602001828054610da190611cef565b8015610dec5780601f10610dc357610100808354040283529160200191610dec565b820191905f5260205f20905b815481529060010190602001808311610dcf57829003601f168201915b505050505090505f60015f3373ffffffffffffffffffffffffffffffffffffffff1673ffffffffffffffffffffffffffffffffffffffff1681526020019081526020015f2090505f5f90505b8180549050811015610ee75784828281548110610e5857610e576120c9565b5b905f5260205f20015403610eda578160018380549050610e78919061215e565b81548110610e8957610e886120c9565b5b905f5260205f200154828281548110610ea557610ea46120c9565b5b905f5260205f20018190555081805480610ec257610ec1612191565b5b600190038181905f5260205f20015f90559055610ee7565b8080600101915050610e38565b505f600283604051610ef99190611c1e565b90815260200160405180910390205f6101000a81548160ff0219169083151502179055505f5f5f8681526020019081526020015f206005015f6101000a81548160ff02191690831515021790555060035f815480929190610f59906121be565b9190505550833373ffffffffffffffffffffffffffffffffffffffff167f8754a9e4654dc5f6a7f13fc5019fac2b82f6155aedc007dd7352a2e23f95d82884604051610fa591906121e5565b60405180910390a350505050565b5f60015f8373ffffffffffffffffffffffffffffffffffffffff1673ffffffffffffffffffffffffffffffffffffffff1681526020019081526020015f20805490509050919050565b5f602052805f5260405f205f91509050805f01805461101a90611cef565b80601f016020809104026020016040519081016040528092919081815260200182805461104690611cef565b80156110915780601f1061106857610100808354040283529160200191611091565b820191905f5260205f20905b81548152906001019060200180831161107457829003601f168201915b5050505050908060010180546110a690611cef565b80601f01602080910402602001604051908101604052809291908181526020018280546110d290611cef565b801561111d5780601f106110f45761010080835404028352916020019161111d565b820191905f5260205f20905b81548152906001019060200180831161110057829003601f168201915b505050505090806002015490806003015f9054906101000a900473ffffffffffffffffffffffffffffffffffffffff1690806004015490806005015f9054906101000a900460ff16905086565b6040518060c0016040528060608152602001606081526020015f81526020015f73ffffffffffffffffffffffffffffffffffffffff1681526020015f81526020015f151581525090565b5f604051905090565b5f5ffd5b5f5ffd5b5f5ffd5b5f5ffd5b5f601f19601f8301169050919050565b7f4e487b71000000000000000000000000000000000000000000000000000000005f52604160045260245ffd5b611213826111cd565b810181811067ffffffffffffffff82111715611232576112316111dd565b5b80604052505050565b5f6112446111b4565b9050611250828261120a565b919050565b5f67ffffffffffffffff82111561126f5761126e6111dd565b5b611278826111cd565b9050602081019050919050565b828183375f83830152505050565b5f6112a56112a084611255565b61123b565b9050828152602081018484840111156112c1576112c06111c9565b5b6112cc848285611285565b509392505050565b5f82601f8301126112e8576112e76111c5565b5b81356112f8848260208601611293565b91505092915050565b5f60208284031215611316576113156111bd565b5b5f82013567ffffffffffffffff811115611333576113326111c1565b5b61133f848285016112d4565b91505092915050565b5f8115159050919050565b61135c81611348565b82525050565b5f6020820190506113755f830184611353565b92915050565b5f73ffffffffffffffffffffffffffffffffffffffff82169050919050565b5f6113a48261137b565b9050919050565b6113b48161139a565b81146113be575f5ffd5b50565b5f813590506113cf816113ab565b92915050565b5f602082840312156113ea576113e96111bd565b5b5f6113f7848285016113c1565b91505092915050565b5f81519050919050565b5f82825260208201905092915050565b5f819050602082019050919050565b5f819050919050565b61143b81611429565b82525050565b5f61144c8383611432565b60208301905092915050565b5f602082019050919050565b5f61146e82611400565b611478818561140a565b93506114838361141a565b805f5b838110156114b357815161149a8882611441565b97506114a583611458565b925050600181019050611486565b5085935050505092915050565b5f6020820190508181035f8301526114d88184611464565b905092915050565b6114e981611429565b81146114f3575f5ffd5b50565b5f81359050611504816114e0565b92915050565b5f5f5f60608486031215611521576115206111bd565b5b5f84013567ffffffffffffffff81111561153e5761153d6111c1565b5b61154a868287016112d4565b935050602084013567ffffffffffffffff81111561156b5761156a6111c1565b5b611577868287016112d4565b9250506040611588868287016114f6565b9150509250925092565b5f602082840312156115a7576115a66111bd565b5b5f6115b4848285016114f6565b91505092915050565b5f81519050919050565b5f82825260208201905092915050565b8281835e5f83830152505050565b5f6115ef826115bd565b6115f981856115c7565b93506116098185602086016115d7565b611612816111cd565b840191505092915050565b6116268161139a565b82525050565b61163581611348565b82525050565b5f60c083015f8301518482035f86015261165582826115e5565b9150506020830151848203602086015261166f82826115e5565b91505060408301516116846040860182611432565b506060830151611697606086018261161d565b5060808301516116aa6080860182611432565b5060a08301516116bd60a086018261162c565b508091505092915050565b5f6020820190508181035f8301526116e0818461163b565b905092915050565b5f5f604083850312156116fe576116fd6111bd565b5b5f61170b858286016113c1565b925050602061171c858286016114f6565b9150509250929050565b61172f81611429565b82525050565b5f6020820190506117485f830184611726565b92915050565b5f67ffffffffffffffff821115611768576117676111dd565b5b602082029050602081019050919050565b5f5ffd5b5f61178f61178a8461174e565b61123b565b905080838252602082019050602084028301858111156117b2576117b1611779565b5b835b818110156117db57806117c788826114f6565b8452602084019350506020810190506117b4565b5050509392505050565b5f82601f8301126117f9576117f86111c5565b5b813561180984826020860161177d565b91505092915050565b5f60208284031215611827576118266111bd565b5b5f82013567ffffffffffffffff811115611844576118436111c1565b5b611850848285016117e5565b91505092915050565b5f81519050919050565b5f82825260208201905092915050565b5f819050602082019050919050565b5f60c083015f8301518482035f86015261189c82826115e5565b915050602083015184820360208601526118b682826115e5565b91505060408301516118cb6040860182611432565b5060608301516118de606086018261161d565b5060808301516118f16080860182611432565b5060a083015161190460a086018261162c565b508091505092915050565b5f61191a8383611882565b905092915050565b5f602082019050919050565b5f61193882611859565b6119428185611863565b93508360208202850161195485611873565b805f5b8581101561198f5784840389528151611970858261190f565b945061197b83611922565b925060208a01995050600181019050611957565b50829750879550505050505092915050565b5f6020820190508181035f8301526119b9818461192e565b905092915050565b5f6040820190506119d45f830185611726565b6119e16020830184611726565b9392505050565b5f82825260208201905092915050565b5f611a02826115bd565b611a0c81856119e8565b9350611a1c8185602086016115d7565b611a25816111cd565b840191505092915050565b611a398161139a565b82525050565b5f60c0820190508181035f830152611a5781896119f8565b90508181036020830152611a6b81886119f8565b9050611a7a6040830187611726565b611a876060830186611a30565b611a946080830185611726565b611aa160a0830184611353565b979650505050505050565b7f4950465320686173682063616e6e6f7420626520656d707479000000000000005f82015250565b5f611ae06019836119e8565b9150611aeb82611aac565b602082019050919050565b5f6020820190508181035f830152611b0d81611ad4565b9050919050565b7f46696c65206e616d652063616e6e6f7420626520656d707479000000000000005f82015250565b5f611b486019836119e8565b9150611b5382611b14565b602082019050919050565b5f6020820190508181035f830152611b7581611b3c565b9050919050565b7f46696c652073697a65206d7573742062652067726561746572207468616e20305f82015250565b5f611bb06020836119e8565b9150611bbb82611b7c565b602082019050919050565b5f6020820190508181035f830152611bdd81611ba4565b9050919050565b5f81905092915050565b5f611bf8826115bd565b611c028185611be4565b9350611c128185602086016115d7565b80840191505092915050565b5f611c298284611bee565b915081905092915050565b7f46696c65207769746820746869732049504653206861736820616c72656164795f8201527f2065786973747300000000000000000000000000000000000000000000000000602082015250565b5f611c8e6027836119e8565b9150611c9982611c34565b604082019050919050565b5f6020820190508181035f830152611cbb81611c82565b9050919050565b7f4e487b71000000000000000000000000000000000000000000000000000000005f52602260045260245ffd5b5f6002820490506001821680611d0657607f821691505b602082108103611d1957611d18611cc2565b5b50919050565b5f819050815f5260205f209050919050565b5f6020601f8301049050919050565b5f82821b905092915050565b5f60088302611d7b7fffffffffffffffffffffffffffffffffffffffffffffffffffffffffffffffff82611d40565b611d858683611d40565b95508019841693508086168417925050509392505050565b5f819050919050565b5f611dc0611dbb611db684611429565b611d9d565b611429565b9050919050565b5f819050919050565b611dd983611da6565b611ded611de582611dc7565b848454611d4c565b825550505050565b5f5f905090565b611e04611df5565b611e0f818484611dd0565b505050565b5b81811015611e3257611e275f82611dfc565b600181019050611e15565b5050565b601f821115611e7757611e4881611d1f565b611e5184611d31565b81016020851015611e60578190505b611e74611e6c85611d31565b830182611e14565b50505b505050565b5f82821c905092915050565b5f611e975f1984600802611e7c565b1980831691505092915050565b5f611eaf8383611e88565b9150826002028217905092915050565b611ec8826115bd565b67ffffffffffffffff811115611ee157611ee06111dd565b5b611eeb8254611cef565b611ef6828285611e36565b5f60209050601f831160018114611f27575f8415611f15578287015190505b611f1f8582611ea4565b865550611f86565b601f198416611f3586611d1f565b5f5b82811015611f5c57848901518255600182019150602085019450602081019050611f37565b86831015611f795784890151611f75601f891682611e88565b8355505b6001600288020188555050505b505050505050565b7f4e487b71000000000000000000000000000000000000000000000000000000005f52601160045260245ffd5b5f611fc582611429565b91507fffffffffffffffffffffffffffffffffffffffffffffffffffffffffffffffff8203611ff757611ff6611f8e565b5b600182019050919050565b5f60a0820190508181035f83015261201a81886119f8565b9050818103602083015261202e81876119f8565b905061203d6040830186611726565b61204a6060830185611726565b6120576080830184611726565b9695505050505050565b7f46696c6520646f6573206e6f74206578697374000000000000000000000000005f82015250565b5f6120956013836119e8565b91506120a082612061565b602082019050919050565b5f6020820190508181035f8301526120c281612089565b9050919050565b7f4e487b71000000000000000000000000000000000000000000000000000000005f52603260045260245ffd5b7f4e6f74207468652066696c65206f776e657200000000000000000000000000005f82015250565b5f61212a6012836119e8565b9150612135826120f6565b602082019050919050565b5f6020820190508181035f8301526121578161211e565b9050919050565b5f61216882611429565b915061217383611429565b925082820390508181111561218b5761218a611f8e565b5b92915050565b7f4e487b71000000000000000000000000000000000000000000000000000000005f52603160045260245ffd5b5f6121c882611429565b91505f82036121da576121d9611f8e565b5b600182039050919050565b5f6020820190508181035f8301526121fd81846119f8565b90509291505056fea26469706673582212205c7f6f8c123d11c2ec764033a4e413cda6fe5c27709ff8d1d94bfddd4d6a513164736f6c634300081e0033","linkReferences":{}},"methodIdentifiers":{"deleteFile(uint256)":"c5b42006","fileExists(uint256)":"2fe61ff6","files(uint256)":"f4c714b4","getFile(uint256)":"2bfda313","getFiles(uint256[])":"94205c9d","getStats()":"c59d4847","getUserFileCount(address)":"e4e10b36","getUserFiles(address)":"1fc37922","ipfsHashExists(string)":"1a2110e6","nextFileId()":"89b83a9b","totalFiles()":"92cf0557","uploadFile(string,string,uint256)":"2419c0db","userFiles(address,uint256)":"718f38a6"},"id":22}